{
  "contractName": "Token",
  "abi": [
    {
      "constant": true,
      "inputs": [],
      "name": "totalSupply",
      "outputs": [
        {
          "internalType": "uint256",
          "name": "",
          "type": "uint256"
        }
      ],
      "payable": false,
      "stateMutability": "view",
      "type": "function"
    }
  ],
  "bytecode": "0x6080604052348015600f57600080fd5b5060878061001e6000396000f3fe6080604052348015600f57600080fd5b506004361060285760003560e01c806318160ddd14602d575b600080fd5b60336049565b6040518082815260200191505060405180910390f35b6000805490509056fea265627a7a72315820a5b12deec70dd25bda2ebabae73d31aea778f26ced5283759be640feeba506c064736f6c63430005100032",
  "source": "pragma solidity 0.5.16;\n\ncontract Token {\n    uint256 internal _totalSupply;\n    uint8 internal _decimals;\n    string internal _symbol;\n    string internal _name;\n\n    /**\n     * @dev See {BEP20-totalSupply}.\n     */\n    function totalSupply() external view returns (uint256) {\n        return _totalSupply;\n    }\n}\n",
  "sourcePath": "/Users/maximschiriy/Work/Bsc-test/contract/contracts/Token.sol",
  "compiler": {
    "name": "solc",
    "version": "0.5.16+commit.9c3226ce.Emscripten.clang"
  },
  "schemaVersion": "3.4.1",
  "updatedAt": "2021-06-28T16:53:10.626Z",
  "devdoc": {
    "methods": {
      "totalSupply()": {
        "details": "See {BEP20-totalSupply}."
      }
    }
  },
  "userdoc": {
    "methods": {}
  }
}